:020000040800F2
:10000000D8040120DD010008E5010008E70100082F
:10001000E9010008EB010008ED0100080000000004
:10002000000000000000000000000000EF010008D8
:10003000F101000800000000F3010008F1080008C9
:10004000F7010008F7010008F7010008F7010008B0
:10005000F7010008F7010008950700080D080008DF
:100060004908000885080008A9080008F7010008E9
:10007000F7010008F7010008F7010008F701000880
:10008000F7010008F701000871070008F7010008F0
:10009000F7010008F7010008F7010008CD08000883
:1000A000F7010008F7010008F7010008F701000850
:1000B000F7010008190A0008390A0008F7010008CA
:1000C000F7010008F7010008F7010008F701000830
:1000D000F7010008F7010008F7010008F701000820
:1000E000D1070008F7010008F7010008F701000830
:1000F000F7010008F7010008F7010008F701000800
:10010000F7010008F7010008F7010008F7010008EF
:100110004D0A0008F7010008F7010008F701000880
:10012000F7010008F7010008F7010008F7010008CF
:10013000F7010008F7010008F7010008F7010008BF
:10014000F7010008F7010008F7010008F7010008AF
:10015000F7010008F7010008F7010008F70100089F
:10016000F7010008F7010008F7010008F70100088F
:10017000F7010008F7010008F7010008000000007F
:10018000F7010008F7010008F7010008F70100086F
:10019000F7010008F7010008F7010008F70100085F
:1001A000F7010008F7010008F7010008F70100084F
:1001B000F7010008F7010008F7010008F70100083F
:1001C000F7010008F7010008DFF80CD000F0BEFAD4
:1001D000004800470D100008D80401200648804759
:1001E00006480047FEE7FEE7FEE7FEE7FEE7FEE71C
:1001F000FEE7FEE7FEE7FEE7B5090008C9010008D3
:10020000202A04DB203A00FA02F1002070479140D6
:10021000C2F1200320FA03F3194390407047202ACB
:1002200006DBCB17203A41FA02F043EAE07306E01E
:1002300041FA02F3D040C2F120029140084319462E
:1002400070472DE9FE4F804681EA0300C00F0C463F
:10025000009021F0004123F00045B8EB0200A941D5
:1002600005D24046214690461C460B46024623F0E6
:100270000040104347D0270DC7F30A00C3F30A51CB
:100280000290401A019040286BDAC3F3130040F447
:10029000801B0098924620B10023D2EB030A63EB47
:1002A0000B0B01985946C0F140025046FFF7A8FFDA
:1002B00006460D4650465946019AFFF7B0FF10EB2F
:1002C00008006141002487EA115284EAE7731A4367
:1002D00040D0009A62B3019A012A4FEA075215DC16
:1002E000001B61EB02014FF0004202EA0752CDE928
:1002F0000042001C41F5801132462B4600F0D8F92F
:1003000003B0BDE8F08F40462146F9E7001B61EBE2
:100310000201001C41F5801300185B412018A2F572
:10032000001747EB030140EAD570B6196D4111E0A3
:100330006D084FEA360645EAC0754FEA0752001BC2
:1003400061EB0201001C41F5801149084FEA3000C1
:100350000019514132462B4603B0BDE8F04F00F082
:1003600098B90098012240000023D0EB020263EB11
:10037000E073009821464FEAE074B8EB000061EBAF
:100380000401E9E783F000435BE781F0004158E7AF
:100390002DE9FE4F81EA030404F0004421F00041FE
:1003A00000944FF0000B23F0004350EA01045ED0AC
:1003B00052EA03045BD0C3F30A54C1F30A552C4438
:1003C000A4F2F3340194A0FB0254C1F3130141F4ED
:1003D0008011C3F3130343F4801301FB024400FBB9
:1003E000034E840A970A44EA815447EA8357A4FBE0
:1003F000076802958D0A05FB07854FEA932C04FBDD
:100400000C542705029D4FEA065847EA1637B5EB0C
:1004100008056EEB070C870E920E47EA811742EA39
:100420008312A7FB0201B6EB0B0164EB00042B0D5A
:1004300043EA0C335E1844EB1C50DA465146E7FBA6
:100440000201C5F313044FEA0B3343EA14534FEA96
:100450000432019C43EA0603A4F10C040294009CBC
:10046000CDE900B400F024F903B0BDE8F08F00201E
:100470000146F9E72DE9F04D81EA030404F0004B51
:1004800021F0004514464FF0000A23F0004150EAE5
:10049000050220D054EA01021DD0C5F30A570246D6
:1004A000C5F31303C1F31300C1F30A5640F48015DA
:1004B00043F48013A7EB0608101BD64608F2FD385C
:1004C00073EB050002D308F1010801E092185B41CB
:1004D000B8F1000F03DA00200146BDE8F08D0020DE
:1004E0004FF48011064684460EE0171B73EB050798
:1004F00005D3121B63EB050306434CEA010C4908C4
:100500004FEA300092185B4150EA0107EDD152EA00
:10051000030012D082EA040083EA0501084305D0F3
:10052000101BAB4106D20122002306E000224FF04F
:10053000004302E06FF0010253101AEB06004CEB8F
:10054000085110EB0A0041EB0B01BDE8F04D00F043
:10055000A0B80EB5C10F80EAE0700844CA070021B8
:1005600040F233438DE80E000A460B4600F0A0F837
:1005700003B000BDC1F30A5210B5C1F3130140F23C
:10058000FF3341F480119A4201DA002010BD40F29D
:1005900033439A42A2F2334203DC524200F032F873
:1005A00010BD904010BD00F0004230F000400AD075
:1005B000C10D01F56071C0F3160042EA0151C20895
:1005C00040071143704700200146704701F0004387
:1005D00030B421F0004150EA010206D00A0DA2F524
:1005E0006072C1F31301002A02DC30BC00207047A6
:1005F000440F44EAC104C100E01830BC00EBC25013
:1006000000F010B8202A04DB203A21FA02F0002181
:10061000704721FA02F3D040C2F120029140084312
:10062000194670470029A8BF7047401C490008BF01
:1006300020F00100704710B4B0FA80FC00FA0CF012
:1006400050EA010404BF10BC704749B1CCF120044A
:1006500021FA04F411FA0CF118BF012121430843D7
:10066000A3EB0C01CB1D4FEA00614FEA102042BF03
:10067000002010BC704700EBC35010440029A4BFF9
:1006800010BC7047401C490008BF20F0010010BC9E
:10069000704710B5141E73F1000408DA401C41F1D4
:1006A000000192185B411A4301D120F0010010BDF6
:1006B0002DE9F04D92469B4611B1B1FA81F202E06C
:1006C000B0FA80F220329046FFF79AFD04460F46BA
:1006D00040EA0A0041EA0B0153465A46084313D048
:1006E000114653EA010019D0C8F140025046FFF705
:1006F00089FF05460E46504659464246FFF780FDA3
:10070000084305D0012004E020463946BDE8F08DBD
:100710000020054346EAE0762C4337430A986305F8
:10072000E40AA0EB08000022FD0A44EA47540A301C
:1007300002D500200146E9E7010510196941DDE90C
:10074000084500196941BDE8F04DA2E7064C074D88
:1007500006E0E06840F0010394E807009847103491
:10076000AC42F6D3FFF734FD901C0008B01C000823
:1007700004480068044908600448C06C04490860E3
:10078000704700004C2201409400012000200140ED
:10079000980001200B48006840F0010009490860FA
:1007A0000948006800F0010028B108480068401CB2
:1007B0000649086004E005480068401E03490860D7
:1007C00070470000143C0140100C02405C00012006
:1007D0000848006840F400500649086000200649B7
:1007E000086006490860064908600649086006492D
:1007F00008607047143C01405C000120600001204B
:1008000064000120380001203C0001200B480068F2
:1008100040F00200094908600948006800F0020041
:10082000022805D107480068401C0649086004E01A
:1008300004480068401E034908607047143C0140AA
:10084000100C0240600001200B48006840F00400DA
:10085000094908600948006800F00400042805D12F
:1008600007480068401C0649086004E00448006826
:10087000401E034908607047143C0140100C0240C0
:10088000640001200648006840F008000449086040
:100890000448006810B90120024908607047000050
:1008A000143C0140380001200648006840F0100068
:1008B0000449086004480068012802D10220024966
:1008C00008607047143C0140380001200648006869
:1008D00040F02000044908600448006810B9012075
:1008E0000249086070470000143C01403C000120B0
:1008F0007047000070B5002000220223002402216E
:10090000274D2D6805F00C0020B1042806D00828DA
:1009100034D107E0234D244E356033E0234D224E81
:1009200035602FE01E4D2D1F2D68C5F380541C4DE2
:100930002D1F2D6805F03F0154B11C4DB5FBF1F59D
:10094000174E361F3668C6F3881605FB06F209E017
:10095000144DB5FBF1F5124E361F3668C6F38816F6
:1009600005FB06F20E4D2D1F2D68C5F301456D1CCC
:100970006B00B2FBF3F50C4E356003E0094D0A4EF7
:10098000356000BF00BF064D2D68C5F30315084E46
:10099000705D054D2D68C540034E356070BD00008B
:1009A000083802400024F400CC00012040787D018A
:1009B000381C00081448006840F4700012490860B0
:1009C0001248006840F001001049086000200F49FB
:1009D000083108600D4800680D4908400B4908605F
:1009E0000C48091D0860081F006820F48020091FBA
:1009F0000860002005490C3108604FF00060024992
:100A0000803908607047000088ED00E0003802403F
:100A1000FFFFF6FE103000240548006820F00100BA
:100A20000349086003480068401C02490860704799
:100A300010040040800001200348006820F00100FD
:100A400001490860704700001008004010B52DED06
:100A5000068B7A48006800F0200000280ED0774806
:100A600008300068764908607648007838B908464A
:100A70000068562802D1012072490870DAE07248F5
:100A80000068042806DA6E48007870496E4A1268D9
:100A9000885422E06C480068082807DA6848017822
:100AA00069480068001F6A4A115416E066480068E9
:100AB0000C2807DA62480178634800680838654AFC
:100AC00011540AE060480068102806DA5C48017892
:100AD0005D4800680C38604A11545B480068401C4F
:100AE000594908605D48006842F21071884203DD90
:100AF00001205B49087006E058480068002802DAC7
:100B00000020574908705648007828B153480068BB
:100B1000401E5249086004E050480068401C4F499C
:100B2000086049480068042806D0082805D00C2829
:100B300004D010287DD102E07BE07AE079E000204B
:100B4000414908603F490870464909684800FFF775
:100B500000FD41EC1A0B9FED440B53EC102BFFF7FB
:100B600017FC41EC190B9FED420B53EC102BFFF7D8
:100B700081FC41EC180BFFF729FD3F4908603F4914
:100B800009684800FFF7E5FC41EC1A0B9FED360BB6
:100B900053EC102BFFF7FCFB41EC190B9FED340BD2
:100BA00053EC102BFFF766FC41EC180BFFF70EFD22
:100BB00033490860334909684800FFF7CAFC41EC33
:100BC0001A0B9FED290B53EC102BFFF7E1FB41ECC7
:100BD000190B9FED270B53EC102BFFF74BFC41EC4F
:100BE000180BFFF7F3FC284908602848006800EE5E
:100BF000100AB8EE400AF7EE000A30EE200ADFEDE8
:100C0000240A80EE801A2148001D006800EE100AB8
:100C1000B8EE400AC0EE010A1E4890ED000AB8EE98
:100C2000C00A20EE800A1C4880ED000A00F036F869
:100C300000BF00BFBDEC068B10BD00001C4C004087
:100C4000480001204000012068000120140001201C
:100C5000180001201C000120200001206C00012050
:100C6000700001205C000120A7E8482EFF21094008
:100C7000000000000080964000000120600001207C
:100C80000400012064000120080001202804004025
:100C90000024744B800001200C00012056203649AE
:100CA000086000BF34480C38006800F0800032490A
:100CB0000C3908600028F5D000200FE02F49095CAE
:100CC0002D4A116000BF2C490C39096801F08001E0
:100CD000294A0C3A11600029F5D0401C0428EDDBAC
:100CE00000200FE02649095C234A116000BF224919
:100CF0000C39096801F080011F4A0C3A1160002983
:100D0000F5D0401C0428EDDB00200FE01D49095CF4
:100D1000194A116000BF18490C39096801F08001B7
:100D2000154A0C3A11600029F5D0401C0428EDDB6F
:100D300000200FE01449095C0F4A116000BF0E4902
:100D40000C39096801F080010B4A0C3A1160002946
:100D5000F5D0401C0428EDDB0A200749086000BFDD
:100D600005480C38006800F0800003490C39086021
:100D70000028F5D070470000284C004000000120FA
:100D800004000120080001200C00012000280DDBD8
:100D900000BF00BF00F01F020121914042099200F4
:100DA00002F1E022C2F8001100BF00BF704700004E
:100DB0001048806840F080400E49886000BF0D48B0
:100DC000006800F002000B4908600128F7D00A48CB
:100DD000006840F08040C1F8080200BF06480838AB
:100DE000006800F002000349C1F800020128F5D0B4
:100DF00070470000002001400822014010B52DED91
:100E0000028BB0EE408AF0EE608AB0EE480AF0EE57
:100E1000680A00F00FF8BDEC028B10BD10B52DED87
:100E2000028BB0EE408AB0EE480A00F00DF8BDEC3F
:100E3000028B10BD2DED020B019820F000400190B7
:100E40009DED000B02B0704710EE100A10B50023A4
:100E5000A0F50001B1F1FE4F67D200BF00F50021FF
:100E60006FF07E0202EBE15CC1F302524FF07E5163
:100E700001EB025100EE901AA0EBCC5003EB0C01F9
:100E800000EE100A51EA020036D030EE601A70EE21
:100E9000200A9FED3D2A3E4881EE200A9FED3B1A35
:100EA00060EE000A00EE821A60EE201A61EE810AFE
:100EB000784401EE101A00EB82009FED362AB8EE5E
:100EC000C11AD0ED001A344841EE021A784401EEFE
:100ED000101A00EB8200B8EEC11A90ED002ADFED87
:100EE0002F2A01EE222AB0EE001A72EE200A40EEFE
:100EF000010A31EEA00A10BDF7EE000A9FED291A93
:100F000030EE600ADFED260A00EE201ADFED260A39
:100F100060EE001A40EE010A9FED241A00EE201A3E
:100F200061EE810A30EE200A10BD4FF07F41B1EB37
:100F3000400F03D2BDE8104000F046B8B0F1FF4FBB
:100F400008BF10BDB5EEC00AF1EE10FA06D20120BE
:100F500000F056F8BDE8104000F03AB8B5EEC00A0F
:100F6000F1EE10FA07D1022000F04AF800F022F862
:100F7000B1EE400A10BDDFED0E0A6FF0160320EE51
:100F8000200A10EE100A69E766F1CC3EAAAA2A3FB1
:100F90009C0D00000070313FA00D0000F4FD0538ED
:100FA00021ED423E0A1180BEC1ABAA3EFFFFFFBE4B
:100FB0000000004BDFED030AB7EE001A81EE200AB5
:100FC000704700000000000030EE000A704700008B
:100FD000DFED020A80EEA00A70470000000000006A
:100FE00002E008C8121F08C1002AFAD170477047F2
:100FF000002001E001C1121F002AFBD17047000050
:101000000149086070470000D00001202DED0A8BD7
:10101000FE48006840F00100FC490860084600688E
:1010200040F0020008600846006840F004000860D4
:101030000846006840F0080008600846006840F074
:10104000100008600846006840F020000860EF4883
:101050001430006840F48040EC4914310860081FE7
:10106000006840F00800091F08600846006840F06A
:10107000040008600846006840F002000860E44888
:101080000068E4490843E24908600020091D08603F
:10109000081D0068DF490843DD4908310860081D64
:1010A0000068DC490843DA490C310860DA48006816
:1010B000D8490843D849086000204860084680683D
:1010C000D4490843D44988600846C068D1490843D8
:1010D000D149C860D1480068D1490843CF49086068
:1010E0000020091D0860081D0068CD490843CB4950
:1010F00008310860081D0068C9490843C7490C3118
:101100000860C848006820F04060C649086008468A
:10111000006820F003000860C348006820F0030066
:10112000C1490860BF48006820F00C00BD49086054
:10113000BD48006820F00C00BB490860B948006851
:1011400020F03000B7490860B748006820F0300050
:10115000B5490860B348006820F0C000B149086094
:101160000846006820F4407008600846006820F4D3
:1011700040600860AD48006840F40050AB4908602A
:10118000AA480830006840F40050A84908310860B7
:101190002021A74841612820FFF7F8FDA3480068F7
:1011A00040F00100A1490860A0480830006840F004
:1011B00001009E49083108609D480830006840F0F1
:1011C00002009B49083108600620FFF7DFFD9748C1
:1011D000006840F0020095490860944808300068B3
:1011E00040F00200914908310860914808300068D9
:1011F00040F020008E49083108600720FFF7C6FD47
:101200008A48006840F00400884908608748083030
:10121000006840F0040085490831086084480830BF
:10122000006840F400708249083108600820FFF728
:10123000ADFD7E48006840F008007C4908607B48AE
:101240000C30006840F0080078490C31086078489C
:101250000830006840F400507549083108600920E2
:10126000FFF794FD7148006840F010006F49086076
:101270006E480C30006840F010006C490C3108607A
:101280006B48C06840F002016948C1600A20FFF75E
:101290007DFD6648006840F02000644908606348AE
:1012A0000C30006840F0200060490C310860604854
:1012B000C06840F020015E48C1601720FFF766FD5E
:1012C00052481030006840F000505049103108601A
:1012D0005848006840F47060564908604FF00110AB
:1012E0005549086049481030006840F400204749DB
:1012F00010310860202051490860081F006840F440
:101300008050091F08604D480C38006840F02C00E0
:101310004A490C3908600846006840F0010008603E
:101320003420FFF733FD3F48006840F400103D498A
:1013300008600846006840F4000008603948203022
:10134000006840F008003749203108603548406A9D
:1013500040F40841334841623648006820F0FF00FD
:10136000344908600846006840F0AA000860002080
:1013700048600846806820F0FF0088600846806862
:1013800040F0550088600846C06820F0FF00C86043
:101390000846C06840F05500C8600846006A42F23E
:1013A00022210843234908622548006840F00100D3
:1013B0002349086000202249143108602048083879
:1013C000006840F001001E49083908601C481438C4
:1013D000006840F001001A491439086018480C30C0
:1013E000006841F21111084315490C31086046F2BA
:1013F00060001349091D0860091D0860A0201049FC
:10140000183108600F4800681EE0000030380240C4
:10141000000402400140001000100240001402408D
:101420000540551000080240000C0240003C0140FD
:101430000038014000000240007400400C4C0040A5
:10144000140C00401404004040F00100FE49086004
:101450000F20FD491431086044F62060091D086022
:10146000F9480838006840F00100F7490839086079
:10147000F5481438006840F00500F3491439086055
:10148000F1480C30006840F00100EF490C31086071
:101490006020ED49091D08601D20FFF777FCEB482F
:1014A000006840F00100E94908600F20E749143165
:1014B000086044F62060091D0860E44808380068A8
:1014C00040F00100E14908390860E048143800683C
:1014D00040F00500DD4914390860DC480C30006834
:1014E00040F00100D9490C3108606020D749091D3E
:1014F00008601D20FFF74AFCD548006840F4806072
:10150000D3490860D348006840F0C000D149086062
:10151000D148006840F02000D049C1F804020846D4
:10152000D0F8080240F00100C1F808020846D0F8DF
:10153000080240F48060C849091D08600920C749B5
:10154000C1F83402C248006840F48070C0490860A5
:10155000C348006840F44050C1490860BF48406833
:1015600040F02000BD4948600846806840F0010016
:1015700088600846806840F4806088600620486380
:101580001220FFF703FCFFF7B5F9B6480168481EC3
:10159000B0F1807F00D31BE0481E4FF0E022506185
:1015A00050170F22002804DB13071C0EAE4B1C54EF
:1015B00006E013071D0EAD4B00F00F04241F1D5550
:1015C00000BF00204FF0E02290610720106100BFB3
:1015D00001E3FFF7EDFBA648006810B1012812D126
:1015E00005E0BAEE040AA34880ED000A0BE09FED87
:1015F000A20AA04880ED000A0020A049086002204D
:101600009B49086000BF00BF9D48006820B10128C9
:101610000DD002282ED115E0B2EE040A994880EDD3
:10162000000AB2EE040A984880ED000A22E0BAEE01
:10163000040A944880ED000AB2EE040A924880ED54
:10164000000A17E0002091490860914908609FED69
:101650008A0A8C4880ED000A9FED870A8A4880ED4F
:10166000000A9FED850A834880ED000A0320844923
:10167000086000BF00BF8748006800F00800082825
:1016800005D08448006800F01000102801D1012026
:1016900000E00020C04390B17F48007878B103207B
:1016A000774908609FED740A764880ED000A9FED47
:1016B000720A754880ED000A002077490870754865
:1016C0000068C0F34010C04368B17448007850B15E
:1016D0009FED690A674880ED000A00206F49087095
:1016E000022063490860674890ED000A10EE101A66
:1016F0000846FEF758FF41EC1C0B9FED690B53ECBD
:10170000102BFEF745FE41EC1B0B9FED670B53ECD6
:10171000102BFEF796FD41EC1A0B9FED650B53EC79
:10172000102BFEF735FE41EC190B9FED630B53ECCC
:10173000102BFEF79FFE41EC180BFEF71BFF6049D4
:101740000860514890ED000A10EE101A0846FEF7A6
:101750002AFF41EC1C0B9FED520B53EC102BFEF7B4
:1017600017FE41EC1B0B9FED500B53EC102BFEF7BB
:1017700068FD41EC1A0B9FED4E0B53EC102BFEF75E
:1017800007FE41EC190B9FED4C0B53EC102BFEF7B1
:1017900071FE41EC180BFEF7EDFE49490C31086073
:1017A000344890ED000AB5EEC00AF1EE10FA21DBE4
:1017B00090ED000AF2EE040AB4EEE00AF1EE10FA3F
:1017C00018D890ED000AB2EE041AC0EE010A3D48A6
:1017D000006800EE100AB8EE400A20EE800ABCEE67
:1017E000C00A10EE100A3749083108600020091DB0
:1017F000086028E01F4890ED000AFAEE040AB4EEF3
:10180000E00AF1EE10FA1EDB90ED000AB5EEC00A18
:10181000F1EE10FA17D8D0ED000A2A48006800EE61
:10182000100AB8EE400A20EE800AFAEE080A80EEAE
:10183000201ABCEEC10A10EE100A22490C310860D1
:101840000020091F08603FE0140400401408004015
:1018500044380240001402400422014000200140AC
:1018600000000240CC00012000E400E018ED00E0A0
:101870003C0001201C000120000000006400012049
:101880003800012014000120180001205C00012014
:1018900060000120100802402800012029000120DA
:1018A0001F85EB51B81EC5BF666666666666FA3F61
:1018B0000000000000FEAF406666666666660A408D
:1018C000087400402C0C0040C34890ED000AB8EEAC
:1018D000C00AC248D0ED000A60EE200AC04890ED70
:1018E000001ABD4890ED000AB8EEC00A31EE400A79
:1018F00080EE801AB0EE418AB0EE480AFFF78EFA09
:10190000B84880ED000AB84890ED000AB748D0ED1D
:10191000000AB44890ED001A00EE810AB448D0EDF8
:10192000000AB04890ED001A60EE810A90ED001AAE
:1019300060EE810A90ED001A00EE810A10EE101A96
:101940000846FEF730FE41EC1B0B53EC1B2B9FEDC2
:10195000A90B51EC100BFEF78DFD41EC1A0B9FED1E
:10196000A70B53EC102BFEF70DFD41EC190BB0EE5D
:10197000490AF0EE690AFFF741FAB0EE408AF0EE4C
:10198000608A51EC180BFEF721FE9E49086008465C
:1019900090ED000ADFED9C0AB4EEE00AF1EE10FAD9
:1019A00006D29A48006820F001009849086005E0D6
:1019B0009648006840F0010094490860944890ED12
:1019C000000AB8EEC00A8548D0ED000A60EE200A91
:1019D000834890ED001A8E4890ED000AB8EEC00AD8
:1019E00031EE400A80EE801AB0EE418AB0EE480A2D
:1019F000FFF714FA874880ED000A7B4890ED000A53
:101A00007A48D0ED000A834890ED001A00EE810A72
:101A10007748D0ED000A7F4890ED001A60EE810A09
:101A200090ED001A60EE810A90ED001A00EE810A36
:101A300010EE101A0846FEF7B6FD41EC1B0B53ECF6
:101A40001B2B9FED6C0B51EC100BFEF713FD41ECC3
:101A50001A0B9FED6A0B53EC102BFEF793FC41EC35
:101A6000190BB0EE490AF0EE690AFFF7C7F9B0EEBC
:101A7000408AF0EE608A51EC180BFEF7A7FD66492C
:101A80000860084690ED000ADFED640AB4EEE00A53
:101A9000F1EE10FA06D25D48006820F080005B4944
:101AA000086005E05948006840F080005749086028
:101AB0005B4890ED000A5B48D0ED000AB4EEE00A06
:101AC000F1EE10FA7EDD58480068401C5649086067
:101AD00008460068FEF73DFD41EC190B9FED530BE6
:101AE00053EC102BFEF754FC41EC180BFEF76EFD87
:101AF0004C4908604F48006830B101281DD00228C9
:101B000034D0032866D14AE04048006840F4807031
:101B10003E4908600846006820F4007008600846E6
:101B2000006840F4806008600846006820F40060A7
:101B3000086001203F4908604CE03448006820F408
:101B40008070324908600846006840F40070086000
:101B50000846006840F4806008600846006820F489
:101B60000060086002203349086033E027480068BD
:101B700020F48070254908600846006840F4007031
:101B800008600846006820F4806008600846006825
:101B900040F4006008600320264908601AE01B48F2
:101BA000006840F48070194908600846006820F415
:101BB000007008600846006820F4806008600846ED
:101BC000006800E007E040F4006008600020194968
:101BD000086000BF00BFFCE494000120C8000120A1
:101BE000C4000120A8000120B8000120BC00012091
:101BF000C0000120000000000000F03F666666663D
:101C000066127140B000012000005C4314140240D1
:101C1000980001209C000120B40001200000204217
:101C2000200001208C00012084000120EC866D8BB7
:101C3000321BC43F900001200000000000000000A3
:101C40000102030406070809000000000102030462
:101C5000000000000030F13D0070643E0000A33E33
:101C60000090CF3E0090F83E00400F3F00E0203F44
:101C70000000000015B78337CDE37B380EE1C5388F
:101C800060F69138AF5F0F38E1BC3E3823F4473936
:101C9000B01C000800000120D4000000E00F000884
:101CA000841D0008D400012004040000F00F000887
:101CB0000000000000000000000000000000000024
:101CC0000000000000000000000000000000000014
:101CD0000000000000000000010100000000000002
:101CE000A7E8482EFF210940000000000000000086
:101CF0000000000020A1070000000000000000001C
:101D000000000000000000000000000000000000D3
:101D100000000000000000000000000000000000C3
:101D200000000000000000000000000000000000B3
:101D300000000000000000000000000000000000A3
:101D40000000000000000000000000000000000093
:101D50000000000000000000000000000000000083
:101D60000000000000000000EBD8583A91EE5A390C
:101D70000A22AD3300F07F4500401C460024F400E9
:041D8000000000005F
:04000005080001DD11
:00000001FF
